{
    "contractName": "HotelReservation",
    "abi": [
        {
            "inputs": [],
            "stateMutability": "nonpayable",
            "type": "constructor"
        },
        {
            "anonymous": false,
            "inputs": [
                {
                    "indexed": false,
                    "internalType": "uint256",
                    "name": "roomId",
                    "type": "uint256"
                },
                {
                    "indexed": false,
                    "internalType": "address",
                    "name": "occupant",
                    "type": "address"
                }
            ],
            "name": "RoomBooked",
            "type": "event"
        },
        {
            "inputs": [
                {
                    "internalType": "uint256",
                    "name": "_roomId",
                    "type": "uint256"
                }
            ],
            "name": "bookRoom",
            "outputs": [],
            "stateMutability": "payable",
            "type": "function"
        },
        {
            "inputs": [
                {
                    "internalType": "uint256",
                    "name": "_roomId",
                    "type": "uint256"
                }
            ],
            "name": "getRoomDetails",
            "outputs": [
                {
                    "internalType": "uint256",
                    "name": "",
                    "type": "uint256"
                },
                {
                    "internalType": "uint256",
                    "name": "",
                    "type": "uint256"
                },
                {
                    "internalType": "bool",
                    "name": "",
                    "type": "bool"
                },
                {
                    "internalType": "address",
                    "name": "",
                    "type": "address"
                }
            ],
            "stateMutability": "view",
            "type": "function"
        },
        {
            "inputs": [],
            "name": "owner",
            "outputs": [
                {
                    "internalType": "address payable",
                    "name": "",
                    "type": "address"
                }
            ],
            "stateMutability": "view",
            "type": "function"
        },
        {
            "inputs": [
                {
                    "internalType": "uint256",
                    "name": "",
                    "type": "uint256"
                }
            ],
            "name": "rooms",
            "outputs": [
                {
                    "internalType": "uint256",
                    "name": "id",
                    "type": "uint256"
                },
                {
                    "internalType": "uint256",
                    "name": "price",
                    "type": "uint256"
                },
                {
                    "internalType": "bool",
                    "name": "isAvailable",
                    "type": "bool"
                },
                {
                    "internalType": "address payable",
                    "name": "occupant",
                    "type": "address"
                }
            ],
            "stateMutability": "view",
            "type": "function"
        }
    ],
    "bytecode": "6080604052346100b5575f80546001600160a01b031916331790556100486100256100b9565b5f8152670de0b6b3a76400006020820152600160408201525f60608201526100ec565b6100776100536100b9565b60018152671bc16d674ec800006020820152600160408201525f60608201526100ec565b6100a66100826100b9565b600281526729a2241af62c00006020820152600160408201525f60608201526100ec565b6040516102eb90816101758239f35b5f80fd5b60405190608082016001600160401b038111838210176100d857604052565b634e487b7160e01b5f52604160045260245ffd5b600154680100000000000000008110156100d85760018101806001558110156101605760029060015f52600360205f2091020182518155602083015160018201550190604081015115159060ff8354916060610100600160a81b0391015160081b1692169060018060a81b03191617179055565b634e487b7160e01b5f52603260045260245ffdfe60806040526004361015610011575f80fd5b5f3560e01c80631bae0ac814610214578063294550de146101b15780635f49d3d81461007057638da5cb5b14610045575f80fd5b3461006c575f36600319011261006c575f546040516001600160a01b039091168152602090f35b5f80fd5b602036600319011261006c5760043561008c6001548210610269565b61009581610239565b50600281019081549060ff82161561016c57600101543403610136576001600160a81b0319163360081b610100600160a81b03161790555f805481908190819081906001600160a01b0316341561012c575b3491f1156101215760407f79ba3c8f86555bfaaf2ad0fd2f81064251d3c03b50f84018f7d674fbafa41155918151908152336020820152a1005b6040513d5f823e3d90fd5b6108fc91506100e7565b60405162461bcd60e51b815260206004820152600e60248201526d141c9a5e081a5b98dbdc9c9958dd60921b6044820152606490fd5b60405162461bcd60e51b815260206004820152601c60248201527f4c61206368616d627265206573742064656a61207265736572766565000000006044820152606490fd5b3461006c57602036600319011261006c5760806101dc6004356101d76001548210610269565b610239565b508054906002600182015491015490604051928352602083015260ff81161515604083015260018060a01b039060081c166060820152f35b3461006c57602036600319011261006c5760043560015481101561006c576101dc6080915b6001548110156102555760015f52600360205f20910201905f90565b634e487b7160e01b5f52603260045260245ffd5b1561027057565b60405162461bcd60e51b815260206004820152601760248201527f4c61206368616d627265206e27657869737465207061730000000000000000006044820152606490fdfea264697066735822122044998b48fd1750bfd6daf94616eca0a9c4461a0b1e84fa8db29e7e4b3f6b420964736f6c634300081c0033",
    "sourcePath": "c:/Users/Bouchra/OneDrive - Yalova Üniversitesi/Bureau/reservation-hotel/contract/HotelReservation.sol",
    "compiler": {
        "name": "solc",
        "version": "0.8.28+commit.7893614a"
    },
    "functionHashes": {
        "bookRoom(uint256)": "5f49d3d8",
        "getRoomDetails(uint256)": "294550de",
        "owner()": "8da5cb5b",
        "rooms(uint256)": "1bae0ac8"
    },
    "gasEstimates": {
        "creation": {
            "codeDepositCost": "149400",
            "executionCost": "infinite",
            "totalCost": "infinite"
        },
        "external": {
            "bookRoom(uint256)": "infinite",
            "getRoomDetails(uint256)": "10959",
            "owner()": "2334",
            "rooms(uint256)": "10905"
        }
    }
}